{
  "contractName": "TenderAuction",
  "abi": [
    {
      "constant": true,
      "inputs": [],
      "name": "bidCount",
      "outputs": [
        {
          "internalType": "uint256",
          "name": "",
          "type": "uint256"
        }
      ],
      "payable": false,
      "stateMutability": "view",
      "type": "function"
    },
    {
      "constant": true,
      "inputs": [],
      "name": "bidderCount",
      "outputs": [
        {
          "internalType": "uint256",
          "name": "",
          "type": "uint256"
        }
      ],
      "payable": false,
      "stateMutability": "view",
      "type": "function"
    },
    {
      "constant": true,
      "inputs": [
        {
          "internalType": "address",
          "name": "",
          "type": "address"
        }
      ],
      "name": "bidders",
      "outputs": [
        {
          "internalType": "uint256",
          "name": "id",
          "type": "uint256"
        },
        {
          "internalType": "string",
          "name": "username",
          "type": "string"
        }
      ],
      "payable": false,
      "stateMutability": "view",
      "type": "function"
    },
    {
      "constant": true,
      "inputs": [
        {
          "internalType": "uint256",
          "name": "",
          "type": "uint256"
        }
      ],
      "name": "bids",
      "outputs": [
        {
          "internalType": "uint256",
          "name": "id",
          "type": "uint256"
        },
        {
          "internalType": "uint256",
          "name": "tenderId",
          "type": "uint256"
        },
        {
          "internalType": "string",
          "name": "tenderTitle",
          "type": "string"
        },
        {
          "internalType": "uint256",
          "name": "bid",
          "type": "uint256"
        },
        {
          "internalType": "address",
          "name": "userHash",
          "type": "address"
        }
      ],
      "payable": false,
      "stateMutability": "view",
      "type": "function"
    },
    {
      "constant": true,
      "inputs": [],
      "name": "tenderCount",
      "outputs": [
        {
          "internalType": "uint256",
          "name": "",
          "type": "uint256"
        }
      ],
      "payable": false,
      "stateMutability": "view",
      "type": "function"
    },
    {
      "constant": true,
      "inputs": [
        {
          "internalType": "uint256",
          "name": "",
          "type": "uint256"
        }
      ],
      "name": "tenders",
      "outputs": [
        {
          "internalType": "uint256",
          "name": "id",
          "type": "uint256"
        },
        {
          "internalType": "string",
          "name": "itemName",
          "type": "string"
        },
        {
          "internalType": "string",
          "name": "itemDescription",
          "type": "string"
        },
        {
          "internalType": "uint256",
          "name": "quantity",
          "type": "uint256"
        },
        {
          "internalType": "string",
          "name": "area",
          "type": "string"
        },
        {
          "internalType": "address",
          "name": "userHash",
          "type": "address"
        }
      ],
      "payable": false,
      "stateMutability": "view",
      "type": "function"
    },
    {
      "constant": true,
      "inputs": [],
      "name": "uploaderCount",
      "outputs": [
        {
          "internalType": "uint256",
          "name": "",
          "type": "uint256"
        }
      ],
      "payable": false,
      "stateMutability": "view",
      "type": "function"
    },
    {
      "constant": true,
      "inputs": [
        {
          "internalType": "address",
          "name": "",
          "type": "address"
        }
      ],
      "name": "uploaders",
      "outputs": [
        {
          "internalType": "uint256",
          "name": "id",
          "type": "uint256"
        },
        {
          "internalType": "string",
          "name": "username",
          "type": "string"
        }
      ],
      "payable": false,
      "stateMutability": "view",
      "type": "function"
    },
    {
      "constant": true,
      "inputs": [
        {
          "internalType": "uint256",
          "name": "",
          "type": "uint256"
        }
      ],
      "name": "whoIsBidder",
      "outputs": [
        {
          "internalType": "address",
          "name": "",
          "type": "address"
        }
      ],
      "payable": false,
      "stateMutability": "view",
      "type": "function"
    },
    {
      "constant": true,
      "inputs": [
        {
          "internalType": "uint256",
          "name": "",
          "type": "uint256"
        }
      ],
      "name": "whoIsUploader",
      "outputs": [
        {
          "internalType": "address",
          "name": "",
          "type": "address"
        }
      ],
      "payable": false,
      "stateMutability": "view",
      "type": "function"
    },
    {
      "constant": false,
      "inputs": [
        {
          "internalType": "string",
          "name": "_username",
          "type": "string"
        }
      ],
      "name": "createUploader",
      "outputs": [],
      "payable": false,
      "stateMutability": "nonpayable",
      "type": "function"
    },
    {
      "constant": false,
      "inputs": [
        {
          "internalType": "string",
          "name": "_username",
          "type": "string"
        }
      ],
      "name": "createBidder",
      "outputs": [],
      "payable": false,
      "stateMutability": "nonpayable",
      "type": "function"
    },
    {
      "constant": false,
      "inputs": [
        {
          "internalType": "string",
          "name": "_itemName",
          "type": "string"
        },
        {
          "internalType": "string",
          "name": "_itemDescription",
          "type": "string"
        },
        {
          "internalType": "uint256",
          "name": "_quantity",
          "type": "uint256"
        },
        {
          "internalType": "string",
          "name": "_area",
          "type": "string"
        }
      ],
      "name": "createTender",
      "outputs": [],
      "payable": false,
      "stateMutability": "nonpayable",
      "type": "function"
    },
    {
      "constant": false,
      "inputs": [
        {
          "internalType": "uint256",
          "name": "_tenderId",
          "type": "uint256"
        },
        {
          "internalType": "uint256",
          "name": "_bid",
          "type": "uint256"
        }
      ],
      "name": "createBid",
      "outputs": [],
      "payable": false,
      "stateMutability": "nonpayable",
      "type": "function"
    }
  ],
  "bytecode": "0x60806040526000805560006001556000600255600060035534801561002357600080fd5b506115cf806100336000396000f3fe608060405234801561001057600080fd5b50600436106100ea5760003560e01c8063870be2d11161008c578063b7751c7111610066578063b7751c711461027b578063ce6b980114610297578063d45fada2146102b3578063fcc8f793146102d1576100ea565b8063870be2d1146102115780639fa958631461022d578063b40a56271461025d576100ea565b806346b1cb5d116100c857806346b1cb5d146101765780635dc1c9ab146101a657806363968e19146101c257806370d29c11146101f3576100ea565b80631f058776146100ef5780634423c5f11461010d578063465e1def14610141575b600080fd5b6100f7610302565b604051610104919061133f565b60405180910390f35b61012760048036036101229190810190611208565b610308565b604051610138959493929190611400565b60405180910390f35b61015b60048036036101569190810190611208565b6103f6565b60405161016d9695949392919061138a565b60405180910390f35b610190600480360361018b9190810190611208565b61061a565b60405161019d9190611304565b60405180910390f35b6101c060048036036101bb919081019061111c565b61064d565b005b6101dc60048036036101d791908101906110f3565b6108cc565b6040516101ea92919061135a565b60405180910390f35b6101fb610988565b604051610208919061133f565b60405180910390f35b61022b6004803603610226919081019061115d565b61098e565b005b61024760048036036102429190810190611208565b610ab3565b6040516102549190611304565b60405180910390f35b610265610ae6565b604051610272919061133f565b60405180910390f35b61029560048036036102909190810190611231565b610aec565b005b6102b160048036036102ac919081019061111c565b610c8f565b005b6102bb610f0e565b6040516102c8919061133f565b60405180910390f35b6102eb60048036036102e691908101906110f3565b610f14565b6040516102f992919061135a565b60405180910390f35b60005481565b6005602052806000526040600020600091509050806000015490806001015490806002018054600181600116156101000203166002900480601f0160208091040260200160405190810160405280929190818152602001828054600181600116156101000203166002900480156103c05780601f10610395576101008083540402835291602001916103c0565b820191906000526020600020905b8154815290600101906020018083116103a357829003601f168201915b5050505050908060030154908060040160009054906101000a900473ffffffffffffffffffffffffffffffffffffffff16905085565b6004602052806000526040600020600091509050806000015490806001018054600181600116156101000203166002900480601f0160208091040260200160405190810160405280929190818152602001828054600181600116156101000203166002900480156104a85780601f1061047d576101008083540402835291602001916104a8565b820191906000526020600020905b81548152906001019060200180831161048b57829003601f168201915b505050505090806002018054600181600116156101000203166002900480601f0160208091040260200160405190810160405280929190818152602001828054600181600116156101000203166002900480156105465780601f1061051b57610100808354040283529160200191610546565b820191906000526020600020905b81548152906001019060200180831161052957829003601f168201915b505050505090806003015490806004018054600181600116156101000203166002900480601f0160208091040260200160405190810160405280929190818152602001828054600181600116156101000203166002900480156105ea5780601f106105bf576101008083540402835291602001916105ea565b820191906000526020600020905b8154815290600101906020018083116105cd57829003601f168201915b5050505050908060050160009054906101000a900473ffffffffffffffffffffffffffffffffffffffff16905086565b60076020528060005260406000206000915054906101000a900473ffffffffffffffffffffffffffffffffffffffff1681565b336000600190505b6002548111610717578173ffffffffffffffffffffffffffffffffffffffff166006600083815260200190815260200160002060009054906101000a900473ffffffffffffffffffffffffffffffffffffffff1673ffffffffffffffffffffffffffffffffffffffff16141561070a576002600114610709576040517f08c379a00000000000000000000000000000000000000000000000000000000081526004016107009061131f565b60405180910390fd5b5b8080600101915050610655565b506000600190505b60035481116107e1578173ffffffffffffffffffffffffffffffffffffffff166007600083815260200190815260200160002060009054906101000a900473ffffffffffffffffffffffffffffffffffffffff1673ffffffffffffffffffffffffffffffffffffffff1614156107d45760026001146107d3576040517f08c379a00000000000000000000000000000000000000000000000000000000081526004016107ca9061131f565b60405180910390fd5b5b808060010191505061071f565b506002600081548092919060010191905055503360066000600254815260200190815260200160002060006101000a81548173ffffffffffffffffffffffffffffffffffffffff021916908373ffffffffffffffffffffffffffffffffffffffff1602179055506040518060400160405280600254815260200183815250600860003373ffffffffffffffffffffffffffffffffffffffff1673ffffffffffffffffffffffffffffffffffffffff1681526020019081526020016000206000820151816000015560208201518160010190805190602001906108c4929190610fd0565b509050505050565b6008602052806000526040600020600091509050806000015490806001018054600181600116156101000203166002900480601f01602080910402602001604051908101604052809291908181526020018280546001816001161561010002031660029004801561097e5780601f106109535761010080835404028352916020019161097e565b820191906000526020600020905b81548152906001019060200180831161096157829003601f168201915b5050505050905082565b60035481565b60008081548092919060010191905055506040518060c0016040528060005481526020018581526020018481526020018381526020018281526020013373ffffffffffffffffffffffffffffffffffffffff168152506004600080548152602001908152602001600020600082015181600001556020820151816001019080519060200190610a1e929190610fd0565b506040820151816002019080519060200190610a3b929190610fd0565b50606082015181600301556080820151816004019080519060200190610a62929190610fd0565b5060a08201518160050160006101000a81548173ffffffffffffffffffffffffffffffffffffffff021916908373ffffffffffffffffffffffffffffffffffffffff16021790555090505050505050565b60066020528060005260406000206000915054906101000a900473ffffffffffffffffffffffffffffffffffffffff1681565b60015481565b6001600081548092919060010191905055506060600460008481526020019081526020016000206001018054600181600116156101000203166002900480601f016020809104026020016040519081016040528092919081815260200182805460018160011615610100020316600290048015610baa5780601f10610b7f57610100808354040283529160200191610baa565b820191906000526020600020905b815481529060010190602001808311610b8d57829003601f168201915b505050505090506040518060a0016040528060015481526020018481526020018281526020018381526020013373ffffffffffffffffffffffffffffffffffffffff1681525060056000600154815260200190815260200160002060008201518160000155602082015181600101556040820151816002019080519060200190610c35929190610fd0565b506060820151816003015560808201518160040160006101000a81548173ffffffffffffffffffffffffffffffffffffffff021916908373ffffffffffffffffffffffffffffffffffffffff160217905550905050505050565b336000600190505b6002548111610d59578173ffffffffffffffffffffffffffffffffffffffff166006600083815260200190815260200160002060009054906101000a900473ffffffffffffffffffffffffffffffffffffffff1673ffffffffffffffffffffffffffffffffffffffff161415610d4c576002600114610d4b576040517f08c379a0000000000000000000000000000000000000000000000000000000008152600401610d429061131f565b60405180910390fd5b5b8080600101915050610c97565b506000600190505b6003548111610e23578173ffffffffffffffffffffffffffffffffffffffff166007600083815260200190815260200160002060009054906101000a900473ffffffffffffffffffffffffffffffffffffffff1673ffffffffffffffffffffffffffffffffffffffff161415610e16576002600114610e15576040517f08c379a0000000000000000000000000000000000000000000000000000000008152600401610e0c9061131f565b60405180910390fd5b5b8080600101915050610d61565b506003600081548092919060010191905055503360076000600354815260200190815260200160002060006101000a81548173ffffffffffffffffffffffffffffffffffffffff021916908373ffffffffffffffffffffffffffffffffffffffff1602179055506040518060400160405280600354815260200183815250600960003373ffffffffffffffffffffffffffffffffffffffff1673ffffffffffffffffffffffffffffffffffffffff168152602001908152602001600020600082015181600001556020820151816001019080519060200190610f06929190610fd0565b509050505050565b60025481565b6009602052806000526040600020600091509050806000015490806001018054600181600116156101000203166002900480601f016020809104026020016040519081016040528092919081815260200182805460018160011615610100020316600290048015610fc65780601f10610f9b57610100808354040283529160200191610fc6565b820191906000526020600020905b815481529060010190602001808311610fa957829003601f168201915b5050505050905082565b828054600181600116156101000203166002900490600052602060002090601f016020900481019282601f1061101157805160ff191683800117855561103f565b8280016001018555821561103f579182015b8281111561103e578251825591602001919060010190611023565b5b50905061104c9190611050565b5090565b61107291905b8082111561106e576000816000905550600101611056565b5090565b90565b6000813590506110848161155e565b92915050565b600082601f83011261109b57600080fd5b81356110ae6110a982611487565b61145a565b915080825260208301602083018583830111156110ca57600080fd5b6110d583828461150b565b50505092915050565b6000813590506110ed81611575565b92915050565b60006020828403121561110557600080fd5b600061111384828501611075565b91505092915050565b60006020828403121561112e57600080fd5b600082013567ffffffffffffffff81111561114857600080fd5b6111548482850161108a565b91505092915050565b6000806000806080858703121561117357600080fd5b600085013567ffffffffffffffff81111561118d57600080fd5b6111998782880161108a565b945050602085013567ffffffffffffffff8111156111b657600080fd5b6111c28782880161108a565b93505060406111d3878288016110de565b925050606085013567ffffffffffffffff8111156111f057600080fd5b6111fc8782880161108a565b91505092959194509250565b60006020828403121561121a57600080fd5b6000611228848285016110de565b91505092915050565b6000806040838503121561124457600080fd5b6000611252858286016110de565b9250506020611263858286016110de565b9150509250929050565b611276816114cf565b82525050565b6000611287826114b3565b61129181856114be565b93506112a181856020860161151a565b6112aa8161154d565b840191505092915050565b60006112c26017836114be565b91507f4164647265737320616c72656164792070726573656e740000000000000000006000830152602082019050919050565b6112fe81611501565b82525050565b6000602082019050611319600083018461126d565b92915050565b60006020820190508181036000830152611338816112b5565b9050919050565b600060208201905061135460008301846112f5565b92915050565b600060408201905061136f60008301856112f5565b8181036020830152611381818461127c565b90509392505050565b600060c08201905061139f60008301896112f5565b81810360208301526113b1818861127c565b905081810360408301526113c5818761127c565b90506113d460608301866112f5565b81810360808301526113e6818561127c565b90506113f560a083018461126d565b979650505050505050565b600060a08201905061141560008301886112f5565b61142260208301876112f5565b8181036040830152611434818661127c565b905061144360608301856112f5565b611450608083018461126d565b9695505050505050565b6000604051905081810181811067ffffffffffffffff8211171561147d57600080fd5b8060405250919050565b600067ffffffffffffffff82111561149e57600080fd5b601f19601f8301169050602081019050919050565b600081519050919050565b600082825260208201905092915050565b60006114da826114e1565b9050919050565b600073ffffffffffffffffffffffffffffffffffffffff82169050919050565b6000819050919050565b82818337600083830152505050565b60005b8381101561153857808201518184015260208101905061151d565b83811115611547576000848401525b50505050565b6000601f19601f8301169050919050565b611567816114cf565b811461157257600080fd5b50565b61157e81611501565b811461158957600080fd5b5056fea365627a7a72315820891c116c9b947173deb29614d22aa6f26ef1a8fbca7328ec4bec206693839f486c6578706572696d656e74616cf564736f6c63430005100040",
  "source": "// SPDX-License-Identifier: MIT\npragma solidity >=0.4.21;\npragma experimental ABIEncoderV2;\n\ncontract TenderAuction {\n    uint public tenderCount = 0;\n    uint public bidCount = 0;\n    uint public uploaderCount = 0;\n    uint public bidderCount = 0;\n\n    struct Uploader {\n        uint id;\n        string username;\n    }\n\n    struct Bidder {\n        uint id;\n        string username;\n    }\n\n    struct Bid {\n        uint id;\n        uint tenderId;\n        string tenderTitle;\n        uint bid;\n        address userHash;\n    }\n\n    struct Tender {\n        uint id;\n        string itemName;\n        string itemDescription;\n        uint quantity;\n        string area;\n        //uint deadline;\n        address userHash;\n    }\n\n    mapping (uint => Tender) public tenders;\n    mapping (uint => Bid) public bids;\n    mapping (uint => address) public whoIsUploader;\n    mapping (uint => address) public whoIsBidder;\n    mapping (address => Uploader) public uploaders;\n    mapping (address => Bidder) public bidders;\n\n    // modifier isUploader(address _userHash) {\n    //     require(uploaders[_userHash]);\n    //     _;\n    // }\n\n    // modifier isBidder(address _userHash) {\n    //     require(bidders[_userHash]);\n    //     _;\n    // }\n\n    modifier alreadyPresent(address _address) {\n        for(uint i = 1; i <= uploaderCount; i++) {\n            if(whoIsUploader[i] == _address) {\n                require(1 == 2, \"Address already present\");\n            }\n        }\n\n        for(uint i = 1; i <= bidderCount; i++) {\n            if(whoIsBidder[i] == _address) {\n                require(1 == 2, \"Address already present\");\n            }   \n        }\n        _;\n    }\n\n    function createUploader(string memory _username) public alreadyPresent(msg.sender) {\n        uploaderCount++;\n        whoIsUploader[uploaderCount] = msg.sender;\n        uploaders[msg.sender] = Uploader(uploaderCount, _username);\n    }\n\n    function createBidder(string memory _username) public alreadyPresent(msg.sender) {\n        bidderCount++;\n        whoIsBidder[bidderCount] = msg.sender;\n        bidders[msg.sender] = Bidder(bidderCount, _username);\n    }\n\n    function createTender(string memory _itemName, string memory _itemDescription, uint _quantity, string memory _area /*uint _deadline*/) public {\n        tenderCount++;\n        tenders[tenderCount] = Tender(tenderCount, _itemName, _itemDescription, _quantity, _area, /*_deadline,*/ msg.sender);\n    }\n\n    function createBid(uint _tenderId, uint _bid) public {\n        bidCount++;\n        string memory tenderName = tenders[_tenderId].itemName;\n        bids[bidCount] = Bid(bidCount, _tenderId, tenderName, _bid, msg.sender);\n    }\n}\n\n\n\n//Testing the code",
  "sourcePath": "/home/aniketdatar/Downloads/AnotherTender/contracts/Tender.sol",
  "compiler": {
    "name": "solc",
    "version": "0.5.16+commit.9c3226ce.Emscripten.clang"
  },
  "schemaVersion": "3.4.11",
  "updatedAt": "2023-03-25T17:11:01.695Z",
  "networkType": "ethereum",
  "devdoc": {
    "methods": {}
  },
  "userdoc": {
    "methods": {}
  }
}